:100000000C9434000C943E000C943E000C943E0082
:100010000C943E000C943E000C943E000C943E0068
:100020000C943E000C943E000C943E000C943E0058
:100030000C943E000C943E000C943E000C943E0048
:100040000C943E000C943E000C943E000C943E0038
:100050000C943E000C943E000C943E000C943E0028
:100060000C943E000C943E0011241FBECFEFD8E04C
:10007000DEBFCDBF0E9440000C9458000C940000DD
:100080008AB18AB9259A40E289B182FD06C083FF10
:1000900004C045B989B182FFFACF887131E020E010
:1000A00009F430E0832F922F892B99F315B8ECCF08
:0400B000F894FFCFF2
:00000001FF
